S023000053414D335838455F4F6666696369616C446576656C6F706D656E742E7372656319
S2140800003020002055010800510108005101080061
S21408001051010800510108005101080000000000C5
S2140800200000000000000000000000005101080069
S21408003051010800000000005101080051010800A5
S214080040510108005101080051010800510108003B
S214080050510108005101080051010800510108002B
S2140800609502080051010800000000005101080030
S2140800705101080051010800510108000000000065
S21408008000000000A5020800B5020800510108009B
S214080090C502080051010800D5020800E50208005C
S2140800A0F5020800000000005101080005030800DA
S2140800B051010800510108005101080051010800CB
S2140800C051010800510108005101080051010800BB
S2140800D051010800510108005101080051010800AB
S2140800E0510108005101080051010800510108009B
S2140800F05101080010B5054C237833B9044B13B1E9
S2140801000448AFF300800123237010BD300400209C
S2140801100000000044200800084B10B51BB1084931
S2140801200848AFF300800848036803B910BD074BBA
S214080130002BFBD0BDE81040184700BF00000000A9
S2140801403404002044200800442008000000000072
S214080150FEE700BF08B51A4B1A4A9A4203D01A4B54
S214080160174A9A4204D3194B194A9A420FD31AE0EF
S2140801701349184B5B1A23F003030433114A13443C
S21408018052F8040B41F8040B9A42F9D1EBE7124BEC
S214080190124AD21A22F003021A44043B002143F8FA
S2140801A0041B9342FBD10E4B23F0604323F07F03DE
S2140801B00C4A93600C4B98470C4B9847FEE700BFD9
S2140801C0000000204420080030040020301C0020D6
S2140801D0300400202F04002034040020331C0020A4
S2140801E00000080000ED00E00D140800F503080004
S2140801F04FF48063204A136002F5007213601F4BA9
S2140802001B6A13F0807F07D11D4A1C4B1A621A46D8
S214080210936E13F0010FFBD01A4A184B1A621A464F
S214080220936E13F4803FFBD0144A136B23F003033A
S21408023043F001031363936E13F0080FFBD0124AC2
S2140802400E4B9A621A46936E13F0020FFBD01122D9
S2140802500A4B1A631A46936E13F0080FFBD0122245
S214080260064B1A631A46936E13F0080FFBD0074A1C
S214080270074B1A60704700BF000A0E4000060E4083
S2140802800908370009083701013F0D2000BD0105A0
S214080290000000200148024B184700BF1408002041
S2140802A0D11108000148024B184700BFD0080020AB
S2140802B0A11308000148024B184700BFDC0D0020B8
S2140802C0A11308000148024B184700BFE812002097
S2140802D0A11308000148024B184700BFAC060020CF
S2140802E0711008000148024B184700BFF417002099
S2140802F0711008000148024B184700BF3819002043
S2140803006D0908000148024B184700BFF007002097
S214080310510C080010B5114B11489847114B12485C
S2140803209847124C01211248A04702211148A047BD
S21408033003211148A047114C11491248A0471249F9
S2140803401248A047124B13489847BDE810404FF490
S2140803507A7200211048114B184700BF8D07080015
S2140803604C040020A11108001408002031120800CF
S214080370D0080020DC0D0020E8120020D90C080068
S21408038000000940F417002000C00840AC06002012
S2140803900909080038190020F0070020990A080003
S2140803A010B50C4C132120460B4B98478721204646
S2140803B00A4B984720460A4B9847204601221321A5
S2140803C0084B9847BDE810404FF47A72064907482C
S2140803D0074B1847F4170020DD0E0800050F080025
S2140803E01D0F0800E10F0800A10308004C040020B8
S2140803F0D908080008B5134B9847134C0021172056
S214080400A04700211920A047104C01211720A0471B
S21408041001211920A0470E480E4B98470E4B0F484F
S21408042098470F4B98474FF4FA700E4B98470E4D67
S2140804300E48A84701211720A04700211720A047EB
S214080440F6E700BFF101080001050800710508007D
S214080450D0080020A9120800250E0800F41700206E
S214080460A1030800750C0800A10708004C0400202A
S21408047010B5002384B03420012135228DE80F0002
S214080480054C822205490648A04706490648074BF8
S21408049004B0BDE810401847B50408003819002015
S2140804A0701B0020F4170020681B0020B104080009
S2140804B041607047F0B4069F049E059D81670F490A
S2140804C0C0F88C30C0F8802000230022C0F8907056
S2140804D0C0F89460C0F8885080F87420C0F884107B
S2140804E0C0F89C30C0F8A030C0F8A430C0F8A830D7
S2140804F0C0F8AC30C0F8B030F0BC704700350C001F
S21408050010B5012982B020D010D302290CD1164B81
S214080510C0EBC00080001A18185800235168134C06
S214080520009303220123A04702B010BD0E4BC0EB78
S214080530C00080001A1851681858136900220092E3
S2140805400A4C0522A04702B010BD074BC0EBC000FE
S21408055080001A1851681858136900220092034C34
S2140805600322A04702B010BDE4150800B90508002C
S21408057059B1012908D1094BC0EBC00080001A18F0
S21408058051681858064B18477047044BC0EBC00014
S21408059080001A1851681858024B1847E4150800C6
S2140805A0A9050800B1050800036B194301637047E5
S2140805B0436B19434163704710B5541E042C59D831
S2140805C0DFE804F02E2E1A030300446C012B44EADD
S2140805D0010444643FD0046E042B44EA0104046614
S2140805E03CD10165052A4FF001030CBF0163416346
S2140805F001610160184610BD426C022B42EA0102F6
S2140806004264426E42EA010242662DD0082B2FD180
S2140806100162C0F88410416101230160184610BDCC
S214080620029BEBB1012B02D143690B434361436C38
S214080630022A43EA01034364436843EA010343602A
S214080640036F14BF8B430B430367426E01231143AA
S2140806504166184610BD436E0B4343664165C1E7C5
S21408066003690B430361E2E70162C0F88010D2E732
S2140806704162D0E70023D1E72C2819D81F280E4A54
S21408068009D80123916903FA00F030EA010311D072
S21408069010610020704701232038D2F8081103FAA9
S2140806A000F030EA010305D0C2F8000100207047C8
S2140806B0012070470020704700060E40704700BFB4
S2140806C010B504460023C360836003614260426835
S2140806D0016008461946024B9847204610BD00BFE1
S2140806E05D14080000218160C16001614268014B09
S2140806F0006818475D140800034640681A69904267
S21408070019D0D8681A6842F820101A6919695A6800
S21408071091420ED21A690120024410B41A61DA68AE
S2140807205C680244B2FBF4F104FB112210BCDA60E8
S2140807307047012070470020704700BF03460069D5
S214080740B0B198681A69A2B119695A68914210D866
S2140807501A6910B4013A1A619A685C680132B2FBE9
S214080760F4F104FB112210BC9A601B6853F82000B1
S21408077070471B6853F82000704700BF82680368FC
S21408078053F82200704700BF006970474FF6FF71A4
S214080790002281600260426080F85822704700BFDD
S2140807A02DE9F84390F85832002B00F0868004466E
S2140807B0484D002608E094F8580206F1010C5FFA46
S2140807C08CF6864280F08380A8474FEA460909EBF4
S2140807D0060804EB88077B68BA68C01A9042EAD90C
S2140807E054F82830984794F85802002E5DD101280E
S2140807F05FD006F1010C844561D0E0DAFB684E4410
S21408080044F828303A690CEB4C037A6004EB83030F
S2140808109B6804EB8606B36000284ED04FF0010EA6
S21408082005E00EF101078645FFB2C8D2BE460EF1B6
S214080830FF33DBB25A1C8242F3DA03EB430304EBC2
S214080840830654F82310F3689942EAD1716833692D
S2140808509942E6D102EB420204EB82039B68B26837
S2140808600EF101079A42DED1B8423B46724617DDC2
S214080870394603EB430354F8236002EB420244F87C
S214080880226004EB83035E6804EB8208C8F8046001
S214080890CAB29B68511C8842C8F808300B46E8DC88
S2140808A00138C0B284F85802BDE7012EA1D102284B
S2140808B09FD184F85862BDE8F883BDE8F883F0B2A3
S2140808C05FFA8CF6864284F85802FFF47DAFBDE8DE
S2140808D0F88300BFB50C080038B590F85832312BAD
S2140808E00ED803EB43039B00C518C150054BAA60FE
S2140808F004469847686094F85832013384F85832AA
S21408090038BD00BFB50C080010B50446144B984710
S21408091004F1280104F168001022124B9847124986
S21408092000231822616184F8983084F8BC3084F873
S214080930E03084F8043184F8283184F84C3184F89F
S214080940703184F8943184F8B83184F8DC3184F84E
S214080950003284F824322276E261204610BD00BFB9
S214080960BD060800C106080000800040704700BFAA
S21408097030B48901431802254FF0FF3445509C6275
S214080980196A30BC5A60704789010523435070477E
S2140809902DE9F04186B00C9D0227ED0B08264FF096
S2140809A0200C4FF0800EB0EB514F0595019702963C
S2140809B0CDF80CC0CDF810E04FF000041CD2B0EB18
S2140809C0D14F48D2B0EB515F47D2B0EBD15F47D298
S2140809D0B1FBF5F1B0EB114F03D2204606B0BDE8E7
S2140809E0F0812E46042402B11660002B3BD001206D
S2140809F01C6006B0BDE8F0813E46671C0DF1180E77
S214080A000EEB870E5EF814CCB1FBFCFE7045EAD8F8
S214080A10042F35D004F1020E06AE06EB8E0656F805
S214080A20148CB1FBF8F6B04227D8BEF1040F21D0DB
S214080A30033406AE06EB840656F8146CB1FBF6F7DC
S214080A40B84214D8042C10D0059CB1FBF4F18842A7
S214080A50C7D90324C7E70124CFE766463C46CCE758
S214080A6076460324C9E70120B8E72E46BBE7464684
S214080A707446B8E72E467446B5E766463C46B2E77F
S214080A802E463C46AFE700BF00EB8111086A704768
S214080A9000EB8111CA61704730B5044683B0082957
S214080AA000F2BD80DFE801F06CA4747C848C949C12
S214080AB00500232318465B4D0221E3602371A560D9
S214080AC02161002362612360574B984794F90420FC
S214080AD0012153099B00D0B203F1604300F01F05C3
S214080AE003F56143A940002AC3F88010C3F88011B3
S214080AF0C0F2868002F1604202F56142302382F835
S214080B00003394F90430494903F01F00012282405B
S214080B105B0941F8232001F1145101F55C4104F109
S214080B2014000DC8424D0091A847A3691A68202AE8
S214080B306DD0802A6FD04CF20103082A0BBF1A46E4
S214080B404FF44042082502252169A068394B98478A
S214080B50394A6369B2FBF5F22169B2FBF3F2A06881
S214080B60364B9847A0682169102200EB81136FF076
S214080B7010055A62324A9D629047204603B030BD3F
S214080B8030491B200023A1602361E060207198E7AC
S214080B902C491D200223A1602361E060207190E7A4
S214080BA029491E200023A1602361E060207188E7A0
S214080BB025491F200123A1602361E060207180E79A
S214080BC0214920200223A1602361E060207178E794
S214080BD0144921200023A1602361E060207170E79A
S214080BE0104922200123A1602361E060207168E794
S214080BF014491C200123A1602361E060207160E78E
S214080C00124B00F00F00034430221A7679E7154697
S214080C104CF2020298E715464CF2030294E7C068C5
S214080C204FE700BF008008407906080000E100E0B2
S214080C30910908007109080000BD0105910A08001D
S214080C40890908000000084000400840FCEC00E065
S214080C5010B50446064B0169806898472368226ADF
S214080C600133236012B1BDE81040104710BD00BF25
S214080C70890A080030B40E4CA368226903EB821276
S214080C801346916A41F0100191622568516A41F055
S214080C90100151629A6A42F010029A622268596AF2
S214080CA0521B41F0100182425962F3D330BC7047A0
S214080CB0F0070020074A1169936803EB8113996AC5
S214080CC041F01001996210685A6A42F010025A629E
S214080CD0704700BFF00700202DE9F04704460F468E
S214080CE082B0464B464E984704F1740A002384F8AF
S214080CF02C3084F82D30434D04F13401102204F1D1
S214080D00C80950462663A84704F58E7804F188017A
S214080D1010224846A84704F1DC0110224046A8479E
S214080D20394D5046A8474846A8474046A847374B37
S214080D309F4256D0162346214722A7612663616242
S214080D40A262236223770B20314FB847636A314E7D
S214080D50C3EBC3039B00F1182025F0580A7B4B69A8
S214080D60DFF8BC8049680095C047A36A0095C3EBC6
S214080D70C3039B00F1180A7BF0584B694968C047C3
S214080D80206AB84794F91C20012153099B00D0B269
S214080D9003F1604300F01F0603F56143B140002AE3
S214080DA0C3F88010C3F8801115DB02F1604202F523
S214080DB0614282F8005394F91C30174803F01F016B
S214080DC001228A405B0940F8232020460021A175AD
S214080DD002B0BDE8F087114B00F00F0003441D7603
S214080DE0E9E7172314211522A76126636162A26228
S214080DF023622377064F0C20B847A7E7BD060800EE
S214080E00801A0600C1060800E5060800000009402A
S214080E1079060800E415080000E100E0FCEC00E0B4
S214080E20B905080090F82C300BB10120704782698C
S214080E30F0B501254FF0FF348575016B437580F8D2
S214080E402C50037594628020146A1060214820266E
S214080E5008270424D2F830E0814217601660146030
S214080E60166A01D91846F0BD1B48A940B0FBF1F137
S214080E700439FF2918D9E940FF2920D9E940FF2974
S214080E801FD9E940FF291ED9E940FF291DD9E940A5
S214080E90FF291CD9E940FF290ED9E940FF2998BF48
S214080EA007230AD94FF4E0230802C9B280B21943CF
S214080EB0014311610120F0BD06231B04F4E72B460D
S214080EC0FBE70223F9E70323F7E72346F5E70523BD
S214080ED0F3E700BF801A060000BD0105002310B422
S214080EE001220224847580F8391180F83031427561
S214080EF080F8313180F83231C0F8343180F8383132
S214080F0010BC7047837D022B03D000F58E70024B11
S214080F1018477430004B1847F9060800022240F2BA
S214080F20E9338169427501E0013B50D00A6AD2076D
S214080F30FAD570B500250B6A4D6090F83941D0F89F
S214080F40343124041A0204F4FE0402F440722243E4
S214080F504A60CD606BB1012B90F8304138DD90F8CF
S214080F603121022B42EA042432D090F8322142EA98
S214080F70042300F17405CB600446164B28469847B0
S214080F8001280DD0A669144A3368284643F00103A1
S214080F9033609047A3694FF4827270635A6270BDDB
S214080FA00E4B28469847A66984F83A0133680A4AD9
S214080FB043F0020333603368284643F00103336086
S214080FC0904740F20112A36970635A6270BD704779
S214080FD02346CEE7890708003D0708007D07080076
S214080FE0F0B480F8391103270021052602258775F5
S214080FF040F2E9334675846980F82D2080F8382158
S21408100080F8301180F8311180F832114575C0F833
S214081010341101E0013B1ED0226AD207FAD500221D
S214081020236A626090F839311B0403F4FE0343F424
S21408103080536360E260E26090F838314FF4817262
S214081040012B236809D023F001032360236843F0AB
S214081050010323606262F0BC704723F00303236039
S214081060236843F0030323606262F0BC704700BF46
S21408107040F2071270B50446836901211E6A1920DA
S2140810809A62424DA84700211920A847A37D022B43
S2140810900CD0A37D032B00D070BDF30523D5637D4C
S2140810A0022B04BF01232375637D70BDF1050ED5A1
S2140810B0637D022B04BF01232375637D032BEBD1CD
S2140810C0334B04F1740098470223237570BD04F16E
S2140810D07405304B28469847034640BBF20747D46A
S2140810E0A37D032BD8D194F82D30ABB106236375B6
S2140810F094F82D30012BA36935D0196B04F1C8007C
S214081100254B984794F82D30A269013BDBB24FF483
S214081110817184F82D30516294F82D30002BBBD1A4
S214081120A36907214FF4817261759A6270BD032224
S2140811300128627509D02846184BA5699847A369FF
S2140811404FF4827268635A6270BDA669134A3368A0
S214081150284643F002033360904740F20112A36921
S21408116070635A6270BD1A6842F002021A60C4E7D9
S21408117001220421A27528462375054A6175904701
S21408118040F20512A3699A6270BD00BF7105080097
S214081190E506080089070800F90608003D07080064
S2140811A038B50446084B9847084D04F1140104F175
S2140811B094001022A84704F1540104F1A800102254
S2140811C0A847204638BD00BFBD060800C10608006F
S2140811D038B5134B05465C69E2070AD4A3070ED454
S2140811E014F0600F04D00E4A136843F4807313603B
S2140811F038BD996994300B4B9847A307F0D5A835A6
S2140812002846094B984718B9054B0222DA60E7E7E3
S214081210064B28469847024BC0B2D861E0E700BFA5
S21408122000080E40F9060800890708003D07080070
S21408123070B504460D46174B9847174E04F134010F
S214081240962204F2E440B04704F5237104F59F6043
S2140812509622B047022D17D0032D10D0012D01D0AD
S214081260204670BD0D48112312211322E361237610
S21408127000236061A16262622363204670BD08484D
S21408128014230E210F22F1E70648122310211122FB
S214081290ECE700BFBD060800C1060800008009404C
S2140812A000400A4000C009402DE9F047066B4FF49D
S2140812B0E1324FF40C6382B0C262036216B102B028
S2140812C0BDE8F0870446836A304DC3EBC3039B0032
S2140812D0E918E8580A7B4B69DFF8C0804968009629
S2140812E0C047636A0127C3EBC3039B00E9180A7B60
S2140812F0E8584B6949680097C047D4F82CA0244B97
S214081300E069656994F91880D4F82090984740F207
S214081310022020494FEA0A1AB1FBFAF14FEA58139D
S2140813205FFA88F29B00C5F8200102F01F0E4FF402
S214081330D67003F16043286007FA0EF703F5614399
S2140813404FF0FF30B8F1000FC5F804902962E86046
S214081350C3F88070C3F8807112DB08F1604202F5AA
S214081360614282F8006301221F60AA602B68502140
S21408137023F4D6732B602960226302B0BDE8F08799
S214081380054902F00F0211440E76ECE7E415080052
S2140813907906080000BD0105FCEC00E0B905080068
S2140813A0F8B5436905465C69E2070AD4A3070FD473
S2140813B014F0600F04D06A69136843F480731360EE
S2140813C0F8BD996900F2E4400D4B9847A307EFD59E
S2140813D005F59F6630460B4B984728B96A69D36867
S2140813E043F00203D360E3E76F693046BB68064AFA
S2140813F043F00203BB609047C0B2F861D8E700BF6D
S214081400F9060800890708003D07080070B50F4E62
S2140814100F4D761BB61018BF002405D0013455F8BA
S214081420043B9847A642F9D10A4E0B4D00F0F4FD4E
S214081430761BB61018BF002406D0013455F8043BB6
S2140814409847A642F9D170BD70BD00BF2420080099
S21408145024200800342008002420080070B48407DC
S21408146046D0541E002A41D0CDB2034602E0621E82
S214081470E4B3144603F8015B9A07F8D1032C2ED977
S214081480CDB245EA05250F2C45EA054519D9264665
S21408149003F11002103E0F2E42F8105C42F80C5C66
S2140814A042F8085C42F8045C02F11002F2D8A4F193
S2140814B0100222F00F0204F00F041032032C13441B
S2140814C00DD91E462246043A032A46F8045BFAD883
S2140814D0221F22F003020432134404F003042CB142
S2140814E0C9B21C4403F8011BA342FBD170BC704769
S2140814F014460346C2E700BF024B13B1024800F089
S21408150005B87047000000001915080000230146BA
S2140815101A46184600F014B838B5074D074C2C1B69
S214081520A41005D0013C55F8043D9847002CF9D185
S214081530BDE8384000F07EBD442008004020080082
S2140815402DE9F047254C064625688846D5F84841D3
S21408155092469946C4B360681F2817DC411C76B1CA
S21408156004EB8003C3F888A0D4F88851012282408F
S2140815701543022EC4F88851C3F808911ED0831C60
S2140815806160002044F82380BDE8F087144B03B35D
S2140815904FF4C870AFF300800446D0B1D5F8483190
S2140815A0002784E888003846C5F848410121C4F871
S2140815B08871C4F88C71002EE1D0D1E7D4F88C314C
S2140815C01A43C4F88C21DAE705F5A674C5F848412D
S2140815D0C1E74FF0FF30BDE8F08700BF14200800D1
S2140815E000000000000E0E40000100000B00000086
S2140815F0010000000000000004000000FFFFFFFFDD
S214081600000E0E40000200000B0000000100000063
S2140816100000000004000000FFFFFFFF00100E405F
S214081620000000020C00000002000000000000009D
S21408163014000000FFFFFF0000120E40000000101C
S2140816400D0000000200000000000000140000006A
S214081650FFFFFF0E00120E40000000040D00000001
S214081660020000000000000014000000FFFFFF0D4D
S21408167000120E40000000020D00000002000000EC
S2140816800000000014000000FFFFFF0C00120E40D0
S214081690000000010D00000002000000000000002D
S2140816A00C000000FFFF07FF00120E40000080003D
S2140816B00D00000002000000000000000C00000002
S2140816C0FFFF06FF00120E40000040000D0000005D
S2140816D002000000000000000C000000FFFF05FFED
S2140816E000120E40000020000D000000020000005E
S2140816F0000000000C000000FFFF04FF00120E4070
S214081700000000200D00000002000000000000009D
S21408171014000000FFFFFF0F00140E4080000000BA
S2140817200E00000002000000000000001400000088
S214081730FFFFFF1000140E40000100000E0000001E
S214081740020000000000000014000000FFFFFF1168
S21408175000100E40000000080C0000000200000008
S2140817600000000014000000FFFFFF0100140E40F8
S214081770100000000E00000002000000000000003C
S21408178004000000FFFFFFFF00140E4020000000CA
S2140817900E00000002000000000000000400000028
S2140817A0FFFFFFFF000E0E40002000000B000000A9
S2140817B0010000000000000004000000FFFFFFFF1B
S2140817C0000E0E40001000000B0000000100000094
S2140817D00000000004000000FFFFFFFF000E0E40A0
S2140817E0000800000B0000000100000000000000D8
S2140817F004000000FFFFFFFF000E0E40000400007C
S2140818000B000000010000000000000004000000BB
S214081810FFFFFFFF00100E40001000000C00000045
S214081820010000000000000004000000FFFFFFFFAA
S21408183000100E40002000000C0000000100000010
S2140818400000000004000000FFFFFFFF00100E402D
S214081850000000040C000000040000000000000067
S21408186004000000FFFFFFFF000E0E4000400000CF
S2140818700B00000004000000000000000400000048
S214081880FFFFFFFF000E0E40008000000B00000068
S214081890040000000000000004000000FFFFFFFF37
S2140818A000140E40010000000E00000004000000B6
S2140818B00000000004000000FFFFFFFF00140E40B9
S2140818C0020000000E0000000400000000000000F7
S2140818D004000000FFFFFFFF00140E400400000095
S2140818E00E000000040000000000000004000000D5
S2140818F0FFFFFFFF00140E40080000000E00000067
S214081900040000000000000004000000FFFFFFFFC6
S21408191000140E40400000000E0000000400000006
S2140819200000000004000000FFFFFFFF00140E4048
S214081930000200000E000000040000000000000086
S21408194004000000FFFFFFFF000E0E4080000000AE
S2140819500B00000004000000000000000400000067
S214081960FFFFFFFF00140E40000400000E000000FA
S214081970040000000000000004000000FFFFFFFF56
S21408198000120E40020000000D00000004000000D7
S2140819900000000004000000FFFFFFFF00120E40DA
S2140819A0040000000D000000040000000000000015
S2140819B004000000FFFFFFFF00120E4008000000B2
S2140819C00D000000040000000000000004000000F5
S2140819D0FFFFFFFF00120E40100000000D00000081
S2140819E0040000000000000004000000FFFFFFFFE6
S2140819F000120E40200000000D0000000400000049
S214081A000000000004000000FFFFFFFF00120E4069
S214081A10400000000D000000040000000000000068
S214081A2004000000FFFFFFFF00120E4080000000C9
S214081A300D00000004000000000000000400000084
S214081A40FFFFFFFF00120E40000100000D0000001F
S214081A50040000000000000004000000FFFFFFFF75
S214081A6000120E40000200000D00000004000000F6
S214081A700000000004000000FFFFFFFF000E0E40FD
S214081A80000008000B000000040000000000000032
S214081A9004000000FFFFFFFF000E0E4000001000CD
S214081AA00B00000004000000000000000400000016
S214081AB0FFFFFFFF00120E40000008000D000000A8
S214081AC0040000000000000004000000FFFFFFFF05
S214081AD000120E40000004000D0000000400000084
S214081AE00000000004000000FFFFFFFF00120E4089
S214081AF0000002000D0000000400000000000000C6
S214081B0004000000FFFFFFFF00120E400000010067
S214081B100D000000040000000000000004000000A3
S214081B20FFFFFFFF00120E40008000000D000000BF
S214081B30040000000000000004000000FFFFFFFF94
S214081B4000120E40004000000D00000004000000D7
S214081B500000000004000000FFFFFFFF00120E4018
S214081B60002000000D000000040000000000000037
S214081B7004000000FFFFFFFF00120E4000100000E8
S214081B800D00000004000000000000000400000033
S214081B90FFFFFFFF00100E40000020000C000000B2
S214081BA0040000000000000004000000FFFFFFFF24
S214081BB000100E40004000000C000000040000006A
S214081BC00000000004000000FFFFFFFF000E0E40AC
S214081BD0000001000B0000000300000000000000E9
S214081BE0020000000007FFFF000E0E400000000184
S214081BF00B000000030000000000000002000000C8
S214081C000106FFFF000E0E40000080000B000000DB
S214081C100300000000000000020000000205FFFFAD
S214081C20000E0E40000040000B00000003000000FD
S214081C3000000000020000000304FFFF000E0E4034
S214081C40400000000B000000030000000000000039
S214081C50020000000403FF05000E0E4010000000FE
S214081C600B00000003000000000000000200000057
S214081C700502FFFF000E0E40080000000B000000E3
S214081C800300000000000000020000000601FF0339
S214081C90000E0E40040000000B00000003000000C9
S214081CA000000000020000000700FF0200100E40BF
S214081CB0000002000C000000030000000000000006
S214081CC002000000080AFFFF00100E400000040093
S214081CD00C000000030000000000000002000000E6
S214081CE0090BFFFF00100E40000008000C00000063
S214081CF00300000000000000020000000A0CFFFFBE
S214081D0000100E40000010000C0000000300000049
S214081D1000000000020000000B0DFFFF00100E4040
S214081D20008000000C000000030000000000000017
S214081D30020000000C10FFFF00100E40000001001B
S214081D400C00000003000000000000000200000075
S214081D500D11FFFF000E0E40020000000B000000F1
S214081D600100000000000000040000000EFFFFFF56
S214081D70000E0E40010000000B00000001000000ED
S214081D8000000000040000000FFFFFFF000E0E40DA
S214081D90000002000B000000010000000000000028
S214081DA004000000FFFFFFFF000E0E4000000400C6
S214081DB00B00000001000000000000000400000006
S214081DC0FFFFFFFF00120E40000000400D0000005D
S214081DD0040000000000000004000000FFFFFFFFF2
S214081DE0000E0E40000020000B000000040000005B
S214081DF00000000004000000FFFFFFFF000E0E407A
S214081E00000000020B0000000100000000000000B7
S214081E1004000000FFFFFFFF000E0E400000000455
S214081E200B00000001000000000000000400000095
S214081E30FFFFFFFF000E0E40000000080B0000002A
S214081E40010000000000000004000000FFFFFFFF84
S214081E50000E0E40000000100B00000001000000FD
S214081E600000000004000000FFFFFFFF00100E4007
S214081E70000080000C0000000200000000000000C7
S214081E8004000000FFFFFFFF000E0E4000000600E3
S214081E900B00000001000000000000000500000024
S214081EA0FFFFFFFF00100E40003000000C0000008F
S214081EB0010000000000000005000000FFFFFFFF13
S214081EC0000E0E40000300000B000000010000009A
S214081ED00000000005000000FFFFFFFF000E0E4098
S214081EE0000C00000B0000000100000000000000CD
S214081EF005000000FFFFFFFF000E0E400030000048
S214081F000B000000010000000000000005000000B3
S214081F10FFFFFFFF00140E40300000000E00000018
S214081F20020000000000000005000000FFFFFFFFA1
S214081F3000100E40000C00000C000000010000001D
S214081F400000000004000000FFFFFFFF00100E4026
S214081F50000020000C000000020000000000000046
S214081F6004000000FFFFFFFF000E0E4000000020E8
S214081F700B00000001000000000000000400000044
S214081F80FFFFFFFF00100E40008000000C0000005E
S214081F90010000000000000004000000FFFFFFFF33
S214081FA000100E40004000000C0000000100000079
S214081FB00000000004000000FFFFFFFF000E0E40B8
S214081FC0030000000B0000000100000000000000F5
S214081FD005000000FFFFFFFF00100E4000C00000D5
S214081FE00C000000010000000000000005000000D2
S214081FF0FFFFFFFF000000000000000000000000D8
S214082000000000000000000000000000FFFFFFFFC7
S2140820104300000008000020F8B500BFF8BC08BC64
S2140820209E467047F91408001901080015030800B1
S21408203071040800F8B500BFF8BC08BC9E46704797
S208082040F500080092
S21408204400093D000000000000000000F402002023
S2140820545C030020C4030020000000000000000009
S214082064000000000000000000000000000000005F
S2140820740000000000000000000000001020080017
S214082084000000000000000000000000000000003F
S214082094000000000000000000000000000000002F
S2140820A4000000000000000000000000000000001F
S2140820B4000000000000000000000000000000000F
S2140820C400000000000000000000000000000000FF
S2140820D400000000000000000000000000000000EF
S2140820E400000000000000000000000000000000DF
S2140820F401000000000000000E33CDAB34126DE67C
S214082104ECDE05000B0000000000000000000000E4
S21408211400000000000000000000000000000000AE
S214082124000000000000000000000000000000009E
S214082134000000000000000000000000000000008E
S214082144000000000000000000000000000000007E
S804080000F3
